01John                        Doe                           Michael                       123 Main St.Anytown           
02000001000000001000USD                                                                                                 
02000002000000002000USD                                                                                                 
02000003000000003000USD                                                                                                 
02000004000000010000USD                                                                                                 
02000005000000010000USD                                                                                                 
02000006000000010000USD                                                                                                 
02000007000000010000PLN                                                                                                 
02000008000000010000USD                                                                                                 
02000009000000010000AUD                                                                                                 
02000010000000002099PLN                                                                                                 
02000011000000000001PLN                                                                                                 
03000011000000068100                                                                                                    
